{
  "contractName": "Blog",
  "abi": [
    {
      "anonymous": false,
      "inputs": [
        {
          "indexed": false,
          "internalType": "uint256",
          "name": "id",
          "type": "uint256"
        },
        {
          "indexed": false,
          "internalType": "string",
          "name": "title",
          "type": "string"
        },
        {
          "indexed": false,
          "internalType": "string",
          "name": "content",
          "type": "string"
        },
        {
          "indexed": false,
          "internalType": "string",
          "name": "hashtags",
          "type": "string"
        },
        {
          "indexed": false,
          "internalType": "string",
          "name": "image",
          "type": "string"
        },
        {
          "indexed": false,
          "internalType": "address",
          "name": "author",
          "type": "address"
        },
        {
          "indexed": false,
          "internalType": "string",
          "name": "authorName",
          "type": "string"
        }
      ],
      "name": "PostCreated",
      "type": "event"
    },
    {
      "inputs": [],
      "name": "postCount",
      "outputs": [
        {
          "internalType": "uint256",
          "name": "",
          "type": "uint256"
        }
      ],
      "stateMutability": "view",
      "type": "function",
      "constant": true
    },
    {
      "inputs": [
        {
          "internalType": "uint256",
          "name": "",
          "type": "uint256"
        }
      ],
      "name": "posts",
      "outputs": [
        {
          "internalType": "uint256",
          "name": "id",
          "type": "uint256"
        },
        {
          "internalType": "string",
          "name": "title",
          "type": "string"
        },
        {
          "internalType": "string",
          "name": "content",
          "type": "string"
        },
        {
          "internalType": "string",
          "name": "hashtags",
          "type": "string"
        },
        {
          "internalType": "string",
          "name": "image",
          "type": "string"
        },
        {
          "internalType": "address",
          "name": "author",
          "type": "address"
        },
        {
          "internalType": "string",
          "name": "authorName",
          "type": "string"
        }
      ],
      "stateMutability": "view",
      "type": "function",
      "constant": true
    },
    {
      "inputs": [
        {
          "internalType": "address",
          "name": "",
          "type": "address"
        }
      ],
      "name": "users",
      "outputs": [
        {
          "internalType": "string",
          "name": "name",
          "type": "string"
        },
        {
          "internalType": "string",
          "name": "email",
          "type": "string"
        },
        {
          "internalType": "string",
          "name": "password",
          "type": "string"
        },
        {
          "internalType": "address",
          "name": "walletAddress",
          "type": "address"
        }
      ],
      "stateMutability": "view",
      "type": "function",
      "constant": true
    },
    {
      "inputs": [
        {
          "internalType": "string",
          "name": "_name",
          "type": "string"
        },
        {
          "internalType": "string",
          "name": "_email",
          "type": "string"
        },
        {
          "internalType": "string",
          "name": "_password",
          "type": "string"
        }
      ],
      "name": "signup",
      "outputs": [],
      "stateMutability": "nonpayable",
      "type": "function"
    },
    {
      "inputs": [
        {
          "internalType": "string",
          "name": "_email",
          "type": "string"
        },
        {
          "internalType": "string",
          "name": "_password",
          "type": "string"
        }
      ],
      "name": "login",
      "outputs": [
        {
          "internalType": "bool",
          "name": "",
          "type": "bool"
        }
      ],
      "stateMutability": "view",
      "type": "function",
      "constant": true
    },
    {
      "inputs": [
        {
          "internalType": "string",
          "name": "_title",
          "type": "string"
        },
        {
          "internalType": "string",
          "name": "_content",
          "type": "string"
        },
        {
          "internalType": "string",
          "name": "_hashtags",
          "type": "string"
        },
        {
          "internalType": "string",
          "name": "_image",
          "type": "string"
        },
        {
          "internalType": "string",
          "name": "_authorName",
          "type": "string"
        }
      ],
      "name": "createPost",
      "outputs": [],
      "stateMutability": "nonpayable",
      "type": "function"
    },
    {
      "inputs": [
        {
          "internalType": "uint256",
          "name": "_id",
          "type": "uint256"
        }
      ],
      "name": "getPost",
      "outputs": [
        {
          "internalType": "string",
          "name": "",
          "type": "string"
        },
        {
          "internalType": "string",
          "name": "",
          "type": "string"
        },
        {
          "internalType": "string",
          "name": "",
          "type": "string"
        },
        {
          "internalType": "string",
          "name": "",
          "type": "string"
        },
        {
          "internalType": "address",
          "name": "",
          "type": "address"
        },
        {
          "internalType": "string",
          "name": "",
          "type": "string"
        }
      ],
      "stateMutability": "view",
      "type": "function",
      "constant": true
    }
  ],
  "bytecode": "0x6080604052600060025534801561001557600080fd5b50611380806100256000396000f3fe608060405234801561001057600080fd5b506004361061007d5760003560e01c806358467dbc1161005b57806358467dbc146100ed578063a87430ba14610110578063ac0861c314610133578063fc446bb41461014857600080fd5b80630b1e7f831461008257806317906c2e146100b157806340731c24146100c8575b600080fd5b610095610090366004610dc2565b61015b565b6040516100a89796959493929190610e37565b60405180910390f35b6100ba60025481565b6040519081526020016100a8565b6100db6100d6366004610dc2565b610460565b6040516100a896959493929190610ebb565b6101006100fb366004610fdb565b6107c8565b60405190151581526020016100a8565b61012361011e36600461103f565b6108a9565b6040516100a8949392919061106f565b6101466101413660046110c2565b610a72565b005b61014661015636600461114a565b610b80565b6001818154811061016b57600080fd5b600091825260209091206007909102018054600182018054919350906101909061121c565b80601f01602080910402602001604051908101604052809291908181526020018280546101bc9061121c565b80156102095780601f106101de57610100808354040283529160200191610209565b820191906000526020600020905b8154815290600101906020018083116101ec57829003601f168201915b50505050509080600201805461021e9061121c565b80601f016020809104026020016040519081016040528092919081815260200182805461024a9061121c565b80156102975780601f1061026c57610100808354040283529160200191610297565b820191906000526020600020905b81548152906001019060200180831161027a57829003601f168201915b5050505050908060030180546102ac9061121c565b80601f01602080910402602001604051908101604052809291908181526020018280546102d89061121c565b80156103255780601f106102fa57610100808354040283529160200191610325565b820191906000526020600020905b81548152906001019060200180831161030857829003601f168201915b50505050509080600401805461033a9061121c565b80601f01602080910402602001604051908101604052809291908181526020018280546103669061121c565b80156103b35780601f10610388576101008083540402835291602001916103b3565b820191906000526020600020905b81548152906001019060200180831161039657829003601f168201915b505050600584015460068501805494956001600160a01b039092169491935091506103dd9061121c565b80601f01602080910402602001604051908101604052809291908181526020018280546104099061121c565b80156104565780601f1061042b57610100808354040283529160200191610456565b820191906000526020600020905b81548152906001019060200180831161043957829003601f168201915b5050505050905087565b6060806060806000606060006001888154811061047f5761047f611256565b90600052602060002090600702016040518060e0016040529081600082015481526020016001820180546104b29061121c565b80601f01602080910402602001604051908101604052809291908181526020018280546104de9061121c565b801561052b5780601f106105005761010080835404028352916020019161052b565b820191906000526020600020905b81548152906001019060200180831161050e57829003601f168201915b505050505081526020016002820180546105449061121c565b80601f01602080910402602001604051908101604052809291908181526020018280546105709061121c565b80156105bd5780601f10610592576101008083540402835291602001916105bd565b820191906000526020600020905b8154815290600101906020018083116105a057829003601f168201915b505050505081526020016003820180546105d69061121c565b80601f01602080910402602001604051908101604052809291908181526020018280546106029061121c565b801561064f5780601f106106245761010080835404028352916020019161064f565b820191906000526020600020905b81548152906001019060200180831161063257829003601f168201915b505050505081526020016004820180546106689061121c565b80601f01602080910402602001604051908101604052809291908181526020018280546106949061121c565b80156106e15780601f106106b6576101008083540402835291602001916106e1565b820191906000526020600020905b8154815290600101906020018083116106c457829003601f168201915b505050918352505060058201546001600160a01b031660208201526006820180546040909201916107119061121c565b80601f016020809104026020016040519081016040528092919081815260200182805461073d9061121c565b801561078a5780601f1061075f5761010080835404028352916020019161078a565b820191906000526020600020905b81548152906001019060200180831161076d57829003601f168201915b50505091909252505050602081015160408201516060830151608084015160a085015160c090950151939d929c50909a509850919650945092505050565b60405160009033906107de90859060200161126c565b60408051601f1981840301815282825280516020918201206001600160a01b038516600090815280835292909220919261081c926001019101611288565b604051602081830303815290604052805190602001201480156108a157508260405160200161084b919061126c565b60408051601f1981840301815282825280516020918201206001600160a01b0385166000908152808352929092209192610889926002019101611288565b60405160208183030381529060405280519060200120145b949350505050565b6000602081905290815260409020805481906108c49061121c565b80601f01602080910402602001604051908101604052809291908181526020018280546108f09061121c565b801561093d5780601f106109125761010080835404028352916020019161093d565b820191906000526020600020905b81548152906001019060200180831161092057829003601f168201915b5050505050908060010180546109529061121c565b80601f016020809104026020016040519081016040528092919081815260200182805461097e9061121c565b80156109cb5780601f106109a0576101008083540402835291602001916109cb565b820191906000526020600020905b8154815290600101906020018083116109ae57829003601f168201915b5050505050908060020180546109e09061121c565b80601f0160208091040260200160405190810160405280929190818152602001828054610a0c9061121c565b8015610a595780601f10610a2e57610100808354040283529160200191610a59565b820191906000526020600020905b815481529060010190602001808311610a3c57829003601f168201915b505050600390930154919250506001600160a01b031684565b3360009081526020819052604090206001018054610a8f9061121c565b159050610ad85760405162461bcd60e51b81526020600482015260136024820152725573657220616c72656164792065786973747360681b604482015260640160405180910390fd5b60408051608081018252848152602080820185905281830184905233606083018190526000908152808252929092208151805192939192610b1c9284920190610d29565b506020828101518051610b359260018501920190610d29565b5060408201518051610b51916002840191602090910190610d29565b5060609190910151600390910180546001600160a01b0319166001600160a01b03909216919091179055505050565b6040805160e0810182526002548152602080820188815292820187905260608201869052608082018590523360a083015260c08201849052600180548082018255600091909152825160079091027fb10e2d527612073b26eecdfd717e6a320cf44b4afac2b0732d9fcbe2b7fa0cf681019182559351805193949193610c2f937fb10e2d527612073b26eecdfd717e6a320cf44b4afac2b0732d9fcbe2b7fa0cf7909301929190910190610d29565b5060408201518051610c4b916002840191602090910190610d29565b5060608201518051610c67916003840191602090910190610d29565b5060808201518051610c83916004840191602090910190610d29565b5060a08201516005820180546001600160a01b0319166001600160a01b0390921691909117905560c08201518051610cc5916006840191602090910190610d29565b5050507fac6538c8ebda53fd3ee4d21c61e56c87dcee253a0971ccecfe1512e15a128244600254868686863387604051610d059796959493929190610e37565b60405180910390a160028054906000610d1d83611323565b91905055505050505050565b828054610d359061121c565b90600052602060002090601f016020900481019282610d575760008555610d9d565b82601f10610d7057805160ff1916838001178555610d9d565b82800160010185558215610d9d579182015b82811115610d9d578251825591602001919060010190610d82565b50610da9929150610dad565b5090565b5b80821115610da95760008155600101610dae565b600060208284031215610dd457600080fd5b5035919050565b60005b83811015610df6578181015183820152602001610dde565b83811115610e05576000848401525b50505050565b60008151808452610e23816020860160208601610ddb565b601f01601f19169290920160200192915050565b87815260e060208201526000610e5060e0830189610e0b565b8281036040840152610e628189610e0b565b90508281036060840152610e768188610e0b565b90508281036080840152610e8a8187610e0b565b6001600160a01b03861660a085015283810360c08501529050610ead8185610e0b565b9a9950505050505050505050565b60c081526000610ece60c0830189610e0b565b8281036020840152610ee08189610e0b565b90508281036040840152610ef48188610e0b565b90508281036060840152610f088187610e0b565b6001600160a01b038616608085015283810360a08501529050610f2b8185610e0b565b9998505050505050505050565b634e487b7160e01b600052604160045260246000fd5b600082601f830112610f5f57600080fd5b813567ffffffffffffffff80821115610f7a57610f7a610f38565b604051601f8301601f19908116603f01168101908282118183101715610fa257610fa2610f38565b81604052838152866020858801011115610fbb57600080fd5b836020870160208301376000602085830101528094505050505092915050565b60008060408385031215610fee57600080fd5b823567ffffffffffffffff8082111561100657600080fd5b61101286838701610f4e565b9350602085013591508082111561102857600080fd5b5061103585828601610f4e565b9150509250929050565b60006020828403121561105157600080fd5b81356001600160a01b038116811461106857600080fd5b9392505050565b6080815260006110826080830187610e0b565b82810360208401526110948187610e0b565b905082810360408401526110a88186610e0b565b91505060018060a01b038316606083015295945050505050565b6000806000606084860312156110d757600080fd5b833567ffffffffffffffff808211156110ef57600080fd5b6110fb87838801610f4e565b9450602086013591508082111561111157600080fd5b61111d87838801610f4e565b9350604086013591508082111561113357600080fd5b5061114086828701610f4e565b9150509250925092565b600080600080600060a0868803121561116257600080fd5b853567ffffffffffffffff8082111561117a57600080fd5b61118689838a01610f4e565b9650602088013591508082111561119c57600080fd5b6111a889838a01610f4e565b955060408801359150808211156111be57600080fd5b6111ca89838a01610f4e565b945060608801359150808211156111e057600080fd5b6111ec89838a01610f4e565b9350608088013591508082111561120257600080fd5b5061120f88828901610f4e565b9150509295509295909350565b600181811c9082168061123057607f821691505b60208210810361125057634e487b7160e01b600052602260045260246000fd5b50919050565b634e487b7160e01b600052603260045260246000fd5b6000825161127e818460208701610ddb565b9190910192915050565b600080835481600182811c9150808316806112a457607f831692505b602080841082036112c357634e487b7160e01b86526022600452602486fd5b8180156112d757600181146112e857611315565b60ff19861689528489019650611315565b60008a81526020902060005b8681101561130d5781548b8201529085019083016112f4565b505084890196505b509498975050505050505050565b60006001820161134357634e487b7160e01b600052601160045260246000fd5b506001019056fea26469706673582212204ea4945e41325023a4b62b7c3be2c421688344013d34f0292ea18062be9a0de364736f6c634300080d0033",
  "immutableReferences": {},
  "source": "// SPDX-License-Identifier: MIT\r\npragma solidity >=0.4.22 <0.9.0;\r\n\r\ncontract Blog {\r\n    struct User {\r\n        string name;\r\n        string email;\r\n        string password;\r\n        address walletAddress;\r\n    }\r\n\r\n    struct BlogPost {\r\n        uint id;\r\n        string title;\r\n        string content;\r\n        string hashtags;\r\n        string image;\r\n        address author;\r\n        string authorName;\r\n    }\r\n\r\n    mapping(address => User) public users;\r\n    BlogPost[] public posts;\r\n    uint public postCount = 0;\r\n\r\n    event PostCreated(\r\n        uint id,\r\n        string title,\r\n        string content,\r\n        string hashtags,\r\n        string image,\r\n        address author,\r\n        string authorName\r\n    );\r\n\r\n    function signup(string memory _name, string memory _email, string memory _password) public {\r\n        require(bytes(users[msg.sender].email).length == 0, \"User already exists\");\r\n        users[msg.sender] = User(_name, _email, _password, msg.sender);\r\n    }\r\n\r\n    function login(string memory _email, string memory _password) public view returns (bool) {\r\n        address userAddress = msg.sender;\r\n        return keccak256(abi.encodePacked(users[userAddress].email)) == keccak256(abi.encodePacked(_email)) &&\r\n               keccak256(abi.encodePacked(users[userAddress].password)) == keccak256(abi.encodePacked(_password));\r\n    }\r\n\r\n    function createPost(\r\n        string memory _title,\r\n        string memory _content,\r\n        string memory _hashtags,\r\n        string memory _image,\r\n        string memory _authorName\r\n    ) public {\r\n        posts.push(BlogPost(postCount, _title, _content, _hashtags, _image, msg.sender, _authorName));\r\n        emit PostCreated(postCount, _title, _content, _hashtags, _image, msg.sender, _authorName);\r\n        postCount++;\r\n    }\r\n\r\n    function getPost(uint _id) public view returns (\r\n        string memory,\r\n        string memory,\r\n        string memory,\r\n        string memory,\r\n        address,\r\n        string memory\r\n    ) {\r\n        BlogPost memory post = posts[_id];\r\n        return (post.title, post.content, post.hashtags, post.image, post.author, post.authorName);\r\n    }\r\n}\r\n",
  "sourcePath": "C:\\Users\\Richa\\Desktop\\Projects\\ledgit\\client\\src\\SmartContracts\\contracts\\Blog.sol",
  "compiler": {
    "name": "solc",
    "version": "0.8.13+commit.abaa5c0e.Emscripten.clang"
  },
  "schemaVersion": "3.4.16",
  "updatedAt": "2024-06-15T06:34:45.318Z",
  "networkType": "ethereum",
  "devdoc": {
    "kind": "dev",
    "methods": {},
    "version": 1
  },
  "userdoc": {
    "kind": "user",
    "methods": {},
    "version": 1
  }
}